:020000040800F2
:100000000805002001010008B3140008FB130008D4
:10001000B11400086D010008C117000800000000BD
:100020000000000000000000000000002B15000888
:100030006F01000800000000291500082D150008B8
:100040001B0100081B0100081B0100081B01000820
:100050001B0100081B0100081B0100081B01000810
:100060001B0100081B0100081B0100081B01000800
:100070001B0100081B0100081B0100081B010008F0
:100080001B0100081B0100081B0100081B010008E0
:10009000B51700081B0100081B0100081B01000820
:1000A0001B0100081B0100081B0100081B010008C0
:1000B0001B0100081B0100081B0100081B010008B0
:1000C0001B0100081B0100081B0100081B010008A0
:1000D0001B0100081B0100081B010008A9170008EC
:1000E0001B0100081B0100081B010008DFF80CD0F1
:1000F00000F02AF8004800473118000808050020E1
:100100000648804706480047FEE7FEE7FEE7FEE7B1
:10011000FEE7FEE7FEE7FEE7FEE7FEE781150008E3
:10012000ED000008D2B201E000F8012B491EFBD21D
:1001300070470022F6E710B513460A4604461946F2
:10014000FFF7F0FF204610BD064C074D06E0E068C3
:1001500040F0010394E8070098471034AC42F6D30E
:10016000FFF7C8FF5C1B00087C1B0008FEE7704718
:1001700090F82020012A07D0022A05D0416A41F4D4
:100180008021416201207047006842690A43426150
:1001900000207047F0B590F820500468A468012D45
:1001A00005D0022D03D0416A41F4802153E014F0C0
:1001B000406F01D1E5004BD5C4F30164022C03D993
:1001C000416A41F4000146E00125A5401D608D68AB
:1001D0004FF4C0739DB1CE6835434E6845EAC605FD
:1001E000066803EB0417F5514FF4C275076805EB79
:1001F00004150E697E51097D012905D009E00E889C
:10020000CD6845EA4655EBE701684E5946F48076DD
:100210004E511179D2F805504FF4C67641EA0525C2
:10022000016806EB04168D511178D2F801204FF4C5
:10023000C47541EA0221026805EB041551510068BA
:1002400003EB0411425842F0010242500020F0BD7D
:10025000416A41F4001141620120F0BD10B590F8EF
:1002600020300268012B07D0022B05D0416A41F4EF
:1002700080214162012010BDD2F8000240F001004F
:10028000C2F80002087D00F01F0301209840D2F858
:100290001C328343C2F81C32CB69B3B9D2F80C329A
:1002A0008343C2F80C328C894B6864F31F434C695A
:1002B00002EBC404C4F840320C890B6864F31F439A
:1002C0004C6902EBC404C4F84432CB69012B16D14B
:1002D000D2F80C320343C2F80C320C884B6864F33A
:1002E0001F434C6902EBC404C4F840320C89CB684C
:1002F00064F31F434C6902EBC404C4F844328B69B5
:10030000002BD2F804320FD053EA0003C2F80432B3
:100310000B69002BD2F8143208D00343C2F8143210
:10032000096A012904D008E08343EFE78343F5E736
:10033000D2F81C120143C2F81C12D2F8000220F0BD
:100340000100C2F80002002010BD704730B590F8DF
:100350002040012C05D0022C03D0416A41F48021B9
:100360005DE00468002955D02469A40754D04FF4F7
:10037000D874056804EB01142D5915F00405956037
:1003800005682D594ED0ED08556005682C5904F0CC
:100390000204D4604FF4DA74056804EB01142D599B
:1003A00005F00F05156105682D59C5F30725956101
:1003B00005682C59240C54614FF4DC72046802EB7C
:1003C0000112A4581C700468A458240A5C700468C4
:1003D000A458240C9C700468A258120EDA704FF4D2
:1003E000DE72046802EB0112A4581C710468A45860
:1003F000240A5C710468A458240C9C710468A258F7
:10040000120EDA71006881B1016941F020010161C9
:10041000002030BDE468A8E7416A41F40011416260
:10042000012030BD6D0D1560AFE7C16841F02001BE
:10043000C160EDE72DE9F05F0546006800244669DC
:10044000D0F804908768D0F80CB0D0F810A0D0F89D
:100450001880F10748D0F90714D001218160B8074E
:1004600003D5284600F003FA0CE0780702D54FF4D4
:10047000006407E0380702D54FF4805402E02846B4
:1004800000F0F4F9F80516D529684FF480708860FB
:10049000B80503D5284600F0ECF90CE0780502D544
:1004A00044F4005407E0380502D544F4804402E0E7
:1004B000284600F0DDF9F80316D529684FF480309E
:1004C0008860B80303D5284600F0D5F90CE078031E
:1004D00002D544F4004407E0380302D544F48034E4
:1004E00002E0284600F0C6F9300707D55FEACB6086
:1004F00004D52968102044F40074C86070074FF0D8
:10050000080707D55FEA0B7004D52868C76028463E
:1005100000F066F9B00706D52868C068800702D0E9
:10052000284600F05FF9700607D55FEACA6004D577
:100530002968102044F480640861B00607D55FEA9A
:100540000A7004D528680761284600F05FF9F006B4
:1005500006D528680069800702D0284600F057F9C0
:10056000B00308D55FEAC96005D529681020486046
:10057000284600F04DF9F00307D55FEA097004D56D
:1005800028684760284600F077F9300446D55FEACE
:10059000497040D5F00504D55FEAC87001D044F039
:1005A0000104B00504D55FEA887001D544F0020467
:1005B000700504D55FEA487001D544F004043005A5
:1005C00029D518F0700F26D008F07000402815D0FB
:1005D00006DC102809D020280AD0302816D10AE0DD
:1005E00050280ED0602811D10EE044F008040DE030
:1005F00044F010040AE044F0200407E044F0400412
:1006000004E044F0800401E044F4807428688169C7
:1006100021F070018161296804204860002C05D018
:10062000686A204368622846FFF78FFEBDE8F09FA6
:1006300070B5040003D094F8200010B104E001204C
:1006400070BD204600F082F82068016821F00201A8
:10065000016000F06DFA0546052604E000F068FA36
:10066000401B0A2811D8206840688007F6D420680B
:10067000016841F00101016000F05AFA05460BE003
:1006800000F056FA401B0A2806D9606A40F4003090
:10069000606284F82060D2E720684068C007EFD02D
:1006A000207E0128206801683DD021F08001016092
:1006B000607E01282068016838D021F04001016087
:1006C000A07E01282068016833D021F0200101605C
:1006D000E07E0128206801682ED041F01001016001
:1006E000207F01282068016829D021F008010160DD
:1006F000607F01282068016824D021F00401016096
:10070000D4E902010843D4E90412114308436168A3
:10071000491E08432168C86100206062012084F8F6
:100720002000002070BD41F08001C0E741F0400191
:10073000C5E741F02001CAE721F01001CFE741F001
:100740000801D4E741F00401D9E7000010B586B0F4
:100750000021009101910291039100681C49884297
:1007600033D11C48C16941F00071C161C16901F018
:1007700000710491816941F0080181618069164C22
:1007800000F0080004904FF4807000906946204605
:1007900000F0D2F860150090022001900320039031
:1007A0006946204600F0C8F80C48416821F4C04171
:1007B00041F0E06141F48041416000221146142083
:1007C00000F022FA142000F011FA06B010BD00006B
:1007D0000064004000100240000C01400000014095
:1007E0007047000010B5064B064A0021FFF7AEFD2A
:1007F000BDE810404FF40051034800F08DB90000EF
:100800001000002098000020001001407047704741
:100810007047000070B5044690F82000012804D00D
:10082000606A40F40020606218E0022084F8200032
:100830002068016821F00101016000F079F90546A6
:100840000EE000BF00F074F9401B0A2808D9606A66
:1008500040F400306062052084F82000012070BD63
:1008600020684068C007EDD1606270BD7047704776
:1008700070477047704770477047000010B590F898
:1008800021100024022903D00421816301243DE0CA
:1008900001680A6822F00E020A6001680A6822F004
:1008A00001020A601A4A0168914201D1012121E046
:1008B000174A1432914201D110211BE0144A283208
:1008C000914201D1891515E0114A3C32914201D182
:1008D00089140FE00E4A5032914202D14FF4803118
:1008E00008E00B4A6432914202D14FF4801101E0DA
:1008F0004FF08071064A083A5160012180F82110BA
:10090000002180F82010416B01B18847204610BDBE
:100910000800024070B5044600F00AF90546601C64
:1009200002D004480078044400F002F9401BA042C1
:10093000FAD370BD200000202DE9F84FDFF8B89100
:10094000002409F1040A0AF1040B23460F270BF1D6
:10095000040EC9E00125A5402A40AA427DD1674E78
:10096000D1F804C0ACEB0608B44532D014DCBCF1BD
:10097000030F3AD009DCBCF1000F2AD0BCF1010F03
:100980001CD0BCF1020F31D11DE0BCF1110F17D00A
:10099000BCF1120F2AD119E0B8F5881F19D006DC76
:1009A000B8F5803F15D0B8F5801F1FD111E0B8F51C
:1009B000001F0ED0B8F5041F18D10AE0CB6815E06F
:1009C000CB681B1D12E0CB6808330FE0CB680C33FB
:1009D0000CE08B682BB1012B4FF0080303D045616D
:1009E00004E0042302E0056100E00023FF2A01D8AF
:1009F000064601E000F104064FEA840501D9A5F19D
:100A00002005D6F8008007FA05FC28EA0C0803FA4E
:100A100005F548EA0508C6F800804D68ED0062D586
:100A2000374DAE6946F00106AE61AD6924F00306AC
:100A300005F001050095334D06EB050CDCF8085078
:100A4000A607360F07FA06F825EA0805DFF8B8808A
:100A5000404503D14FF0000817E044E0DFF8AC80D8
:100A6000404502D14FF001080FE0DFF8A480404577
:100A700002D14FF0020808E0DFF89880404502D12B
:100A80004FF0030801E04FF0040808FA06F848EABE
:100A90000508CCF808804D68D9F80060ED034D4694
:100AA00001D5164300E096432E604D68DAF80060E9
:100AB000AD03554601D5164300E096432E604D68C0
:100AC000DBF80060ED025D4601D5164300E0964379
:100AD0002E604D68DEF80060AD02754601D5164304
:100AE00000E096432E60641C0D682A46E5407FF4C2
:100AF00031AFBDE8F88F0000000401400000111084
:100B0000001002400000014000080140000C0140BC
:100B10000010014000140140C2680A4201D0416146
:100B20007047016170470AB1016170470904FBE732
:100B3000014880687047000020000020024881685A
:100B4000027811448160704720000020074810B5EA
:100B5000016841F010010160032000F075F80020E9
:100B600000F006F800F024F8002010BD002002403C
:100B700070B50D4D04464FF47A712878B1FBF0F052
:100B80000A490968B1FBF0F000F0ECFA48B9102C02
:100B900007D200222146501E00F036F800206C607B
:100BA00070BD012070BD0000200000202C0000203E
:100BB0000C4808B5816941F001018161816901F04A
:100BC00001010091C16941F08051C161C06900F02B
:100BD000805000900448416821F0E06141F00071CC
:100BE000416008BD0010024000000140002809DB00
:100BF00000F01F02012191404009800000F1E02037
:100C0000C0F8001170470000F0B40E4B1B680C4692
:100C1000C3F30223C3F10705042D00D90425191DD0
:100C2000072901D2002300E0DB1E012606FA05F1A8
:100C3000491E214099409E40761E16403143F0BC2B
:100C400000F0BFBD0CED00E0064900F007020868A7
:100C50004FF6FF03184040EA0220034A10430860A1
:100C6000704700000CED00E00000FA052DE9F047A8
:100C70000F46050061D0434E306800F00700B842CF
:100C800009D2306820F0070038433060306800F047
:100C90000700B84251D128683B4C810712D5400764
:100CA00003D5606840F4E06060602878000703D5F1
:100CB000606840F4605060606068A96820F0F000EF
:100CC000084360602878C00728D06868012810D0E1
:100CD0002168022810D0890700292EDA616821F0E6
:100CE000030101436160FFF723FF804641F2883929
:100CF0000DE021688903EFE78901EDE7FFF718FFB1
:100D0000A0EB0801494502D90320BDE8F0876068DF
:100D1000696800F00C00B0EB810FEFD1306800F093
:100D20000700B8420BD9306820F007003843306024
:100D3000306800F00700B84201D00120E5E72878CC
:100D4000400705D56068E96820F4E060084360600A
:100D50002878000706D56068296920F4605040EAC9
:100D6000C100606000F038F86168084AC1F30311FF
:100D7000515CC8400649086006480068FFF7F8FE65
:100D80000020C2E70020024000100240441B00087F
:100D90002C00002024000020044805490068496810
:100DA000044AC1F30221515CC84070472C00002066
:100DB00000100240541B00080448054900684968B7
:100DC000044AC1F3C221515CC84070472C00002086
:100DD00000100240541B000812A185B00FC98DE815
:100DE0000F0014A0144A006804905168134801F0E1
:100DF0000C03042B10D0082B0ED1C1F38343C9037D
:100E00001DF803000AD5516804AAC1F34041515CA2
:100E10000A4A5043B0FBF1F005B070470849484317
:100E2000FAE7000002030405060708090A0B0C0D87
:100E30000E0F1010010200000010024000127A0094
:100E400000093D002DE9F84F040070D02078C04D16
:100E5000C00749D06868C0F38100012807D06868DE
:100E6000C0F38100022809D16868C00306D528684C
:100E7000800339D560680028E7D035E06068B0F5B8
:100E8000803F0BD010B1B0F5A02F11D0286820F40E
:100E900080302860286820F4802002E0286840F430
:100EA00080302860606890B1FFF742FE06460AE095
:100EB000286840F480202860F0E700BFFFF738FE84
:100EC000801B642873D828688003F7D50CE0FFF7EF
:100ED0002FFE064605E000BFFFF72AFE801B6428B0
:100EE000F0D828688003F7D420789A4E80074FF016
:100EF00001094FF0000839D5686810F00C0F07D0D1
:100F00006868C0F38100022809D16868C00306D46C
:100F10002868800714D52069012808D110E02069CD
:100F2000B0B1C6F80090FFF703FE074605E00AE1FE
:100F3000FFF7FEFDC01B0228C4D828688007F7D53C
:100F40002868616920F0F80040EAC10028600DE0DF
:100F5000C6F80080FFF7ECFD074604E0FFF7E8FD68
:100F6000C01B022823D828688007F7D42078000700
:100F70002CD57948A169D9B1C0F80090FFF7D8FD08
:100F8000074604E0FFF7D4FDC01B02280FD8686AAB
:100F90008007F7D571484FF4FA510068B0FBF1F0C3
:100FA000009000BF0098411E0091FAD20EE080E050
:100FB000C0F80080FFF7BCFD074604E0FFF7B8FD6E
:100FC000C01B022875D8686A8007F7D420784007CC
:100FD00060D5E8690027C00008D4E86940F0805077
:100FE000E861E869012700F0805000905C480168E2
:100FF000C90513D40168834641F480710160FFF78D
:1010000097FD824606E000BFFFF792FDA0EB0A00C5
:1010100064284ED8DBF80000C005F5D5E06801284B
:101020000AD008B1052813D0286A20F001002862F0
:10103000286A20F0040002E0286A40F001002862DB
:10104000E06841F2883B98B1FFF772FD82460BE001
:10105000286A40F004002862EEE700BFFFF768FD51
:10106000A0EB0A0159455AD8286A8007F6D50CE04A
:10107000FFF75EFD824605E0FFF75AFDA0EB0A018F
:1010800059454CD8286A8007F6D41FB1E86920F08A
:101090008050E861E06988B36968C1F38101022981
:1010A00044D00228C6F8608004D0FFF741FD044612
:1010B00038E034E0FFF73CFD074604E0FFF738FD79
:1010C000C01B02282BD828688001F7D4206AB0F50D
:1010D000803F05D16868A16820F40030084368604B
:1010E000D4E908010843696821F474110843686071
:1010F000C6F86090FFF71CFD044606E025E000BF3F
:10110000FFF716FD001B022809D828688001F7D5D3
:101110001BE000BFFFF70CFD001B022802D90320D3
:10112000BDE8F88F28688001F4D40EE00128F7D0DC
:101130006868226A00F48031914204D1616A00F447
:101140007010884201D00120EAE70020E8E70000A3
:101150000010024000004242800442422C00002065
:101160000070004010B5401EB0F1807F01D3012017
:1011700010BD4FF0E02460610F21601700F021FBEB
:101180000020A06107202061002010BD70470000F2
:1011900070B5026804461068D168536910F00F0FEB
:1011A00050D003F0010501F4907635435DD0C207BD
:1011B00005D0CA0503D5E26B42F00102E2634207A3
:1011C00005D5DA0703D0E26B42F00202E263820740
:1011D00005D5DA0703D0E26B42F00402E2630207AE
:1011E00005D5DA0703D0E26B42F00802E263E26B56
:1011F000002A33D0800604D5880602D5204600F0A8
:10120000F9F920684069E16BC0F38010090700D448
:1012100028B3204600F0E0F92068416949061AD554
:10122000416921F040014161606BA0B11B494163FC
:10123000606BFFF723FB002810D0606B416BBDE8AB
:1012400070400847830610D58B060ED52046BDE8B2
:10125000704000F0CFB92046FFF798FF70BD2046E0
:10126000FFF794FF0020E06370BD030606D50B0670
:1012700004D52046BDE8704000F064BA4006F3D5BE
:101280004806F1D5D168204621F04001D1602021E7
:1012900084F8391000F0B0F870BD0000C9150008DE
:1012A00070B5040004D094F83900002510B106E0B0
:1012B000012070BD84F83850204600F023F8242027
:1012C00084F839002068C16821F40051C1602046CB
:1012D00000F0DCF92068016921F490410161206887
:1012E000416921F02A0141612068C16841F400513F
:1012F000C160E563202084F8390084F83A000020BA
:1013000070BD000030B585B00024009401940294B3
:1013100003940068194988422DD11948C16941F4E4
:101320008021C161C16901F480210491816941F08A
:10133000080181618069134D00F0080004904FF4AA
:1013400080600090022001900320039069462846A7
:10135000FFF7F2FAE814CDE9000401200290694693
:101360002846FFF7E9FA002211462720FFF74CFC38
:101370002720FFF73BFC05B030BD000000480040CF
:1013800000100240000C014090F83A30202B22D18E
:10139000F9B1F2B190F83830012B1CD0816282850E
:1013A000C2850021C163222280F83A2080F83810DB
:1013B0000168CA6842F48072CA6001684A6942F0F2
:1013C00001024A610068C16841F02001C16000204B
:1013D0007047012070470220704700000449012037
:1013E0000B2208700349A1F19C00FFF7CDBF00005C
:1013F00000000020F40000207047FEE70B480A4977
:101400004FF4003201600921416000218160C0E990
:1014100003124FF440124261017641768176C17623
:1014200001774177FFF704B90064004030000020E5
:1014300070B586B000241C48009401940294039473
:10144000816941F010018161816901F0100104910D
:10145000816941F020018161816901F020010491DD
:10146000816941F008018161816901F008010491FD
:10147000816941F00401816180690C4E00F0040033
:101480004FF400550490002229463046FFF74BFBED
:1014900001200095CDE90104022003906946304601
:1014A000FFF74AFA06B070BD00100240001001407C
:1014B000FEE770470C4A10B5104693780B49C07987
:1014C000062B05D2DFE803F004030507090B48707B
:1014D00010BD887010BDC87010BD087110BD127AA3
:1014E00000EB0220088110BDF40000200000002065
:1014F000054806498278C079012A03D0022A00D122
:101500008871704748717047F40000200000002087
:101510000448407818B1012803D1FFF7E9BFFFF76D
:10152000C9BF7047F400002070477047FFF706BB43
:1015300030B58FB028216846FEF7FBFD14210AA8BC
:10154000FEF7F7FD01210804CDE900100024029404
:1015500002250491CDE907504FF4E0100990684648
:10156000FFF770FC0F20CDE90A056802CDE90C40B9
:1015700002210AA80E94FFF779FB0FB030BD0000DE
:101580000D48016841F00101016041680B4A1140BA
:10159000416001680A4A11400160016821F480211C
:1015A0000160416821F4FE0141604FF41F01816038
:1015B0000449C00308607047001002400000FFF8B3
:1015C000FFFFF6FE08ED00E010B5406A0021C1857E
:1015D000C184FFF7DBFD10BD0168CA6822F4907278
:1015E000CA6001684A6922F001024A61202180F83C
:1015F0003A10704710B590F83A10222901D0022015
:1016000010BD8168B1F5805F11D0016900290168C2
:101610001FD0496801F07F03816A4A1C82620B7007
:10162000C18D491E0904090CC18518D02BE002693F
:10163000816A002A0268526805D0D2B20A80816AA3
:10164000491C8162ECE7C2F308020A80816A891CA6
:10165000F7E74A68816A4B1C83620A70E0E7016819
:10166000CA6822F02002CA600168CA6822F4807247
:10167000CA6001684A6922F001024A61202180F8AB
:101680003A10FFF7ABFE002010BD00002DE9F0413D
:10169000044600680169E26821F440511143016188
:1016A0002169A0680843616908432168CA6841F25A
:1016B0000C639A430243CA6020684169A26921F41D
:1016C0004071114341611E492068642532268842D9
:1016D00002D1FFF771FB01E0FFF75EFB00EBC001F9
:1016E00001EB001160686FF018078000B1FBF0F2A9
:1016F000B2FBF5F2B1FBF0F37A4303EB8202B1FBEC
:10170000F0F306EB0212B2FBF5F2B3FBF5F302F0D5
:10171000F00202EB0312B1FBF0F3B1FBF0F0B0FB0F
:10172000F5F0784303EB800006EB0010B0FBF5F01A
:10173000216800F00F0010448860BDE8F0810000CF
:101740000038014090F83910212901D0022070475B
:101750008168B1F5805F016A0BD04A1C02620268A1
:1017600009785160C18C491E0904090CC1840ED04E
:1017700017E009880268C1F3080151600169002976
:10178000016A02D0491C0162ECE7891CFBE7016891
:10179000CA6822F08002CA600068C16841F0400156
:1017A000C1600020704700000148FFF7F1BC000055
:1017B000580000200148FEF73DBE00003000002028
:1017C000FEE70907090E002804DB00F1E02080F89D
:1017D0000014704700F00F0000F1E02080F8141DA5
:1017E000704702E008C8121F08C1002AFAD17047EA
:1017F0007047002001E001C1121F002AFBD1704791
:101800000A4800214FF6E032416181610161C0E97F
:1018100000214FF6E37181604FF6F871C16001213C
:10182000C16101620E21416270470000CC000020BE
:10183000FFF78CF9FFF77CFE41F28830FFF76AF87A
:10184000FFF7F6FDFFF7DAFD264825490024016081
:101850004FF4E131C0E901140C21C460C0E9044136
:101860008461C461FFF71CFD1E490B229C311D4899
:10187000FFF78AFDFFF7C4FF1A497431A1F19C00FC
:10188000FEF7ECFC17482838FEF7C4FF154808217E
:101890005C3001228460C0E903414FF4FD610160C6
:1018A00002214160047509030F48FFF73CF90D4818
:1018B00002212838FEF75CFC0A4E0C4D40F2DF771F
:1018C0004036287810B1FFF723FE2C703068B842FC
:1018D000F7D100F073F832203460FFF71BF8F0E71F
:1018E0000048004058000020001001400000002087
:1018F0002DE9F0430024DDE907672F4D001F4FF06D
:10190000010C4FF00209602850D2DFE800F04330AC
:1019100043434343433843433C36433A4F4F324FAC
:101920004F4F4F4F4F4F4F4F4F454F454F45434FF1
:101930004F4F4F4F4F4F434343434F45434F434F09
:101940004F4F4F4F4F4F434343434F4F4343434307
:101950004343434343434345454F4F4F434F4F4F0B
:101960004F4F4F4F4F434343434F4F434343E87819
:101970000AE028790870147013E0A87804E0687809
:1019800002E0A87900E06879087014701C70347067
:1019900087F800C0BDE8F0832889000A0870287A1B
:1019A00010701C70347087F80090F3E70C7014709E
:1019B0001C703470EEE70000000000202DE9F043B9
:1019C0005D4C8BB04120A4F10805207028780026DA
:1019D0000DF118090DF11008022817D16070CDE93A
:1019E0000089A87805AB03AA02A9FFF781FFA878B0
:1019F000A0709DF80800E0709DF80C0020719DF823
:101A0000140060719DF81000A071E671287807AF8E
:101A1000032820D16070A878A07005AB03AA02A9A2
:101A2000CDE90089FFF764FF9DF8180002289DF8B2
:101A30000800E07013D0E8782071CDE9008705AB8D
:101A400003AA02A9FFF754FF9DF8080060719DF8F2
:101A50000C00A071E6712878042813D040E09DF8AE
:101A60000C002071E8786071CDE9008705AB03AA0E
:101A700002A9FFF73DFF9DF80800A0719DF80C003A
:101A8000E071E8E76070A878A07005AB03AA02A92E
:101A9000CDE90089FFF72CFF9DF8180002289DF87A
:101AA0000800E07030D0E8782071CDE9008705AB00
:101AB00003AA02A9FFF71CFF9DF81C0002289DF84D
:101AC0000800607132D02879A07108A9CDE90081A1
:101AD00005AB03AA02A9FFF70BFF9DF80800E07110
:101AE000154B16490C3B144AA1F18400FEF752FB3A
:101AF00011484FF4005118388661C6611048FFF74D
:101B00000BF80BB0BDE8F0839DF80C002071E8786D
:101B10006071CDE9008705AB03AA02A9FFF7E8FED3
:101B20009DF80800A0719DF80C00D8E79DF80C0006
:101B3000A071E671D4E7000018000020B400002076
:101B4000001001400000000000000000010203043A
:101B50000607080900000000010203047C1B0008BE
:101B60000000002030000000E2170008AC1B000855
:101B700030000020D8040000F21700080000000028
:101B80000000000000000000000000000000000055
:101B90000000000000000000000000000100000044
:0C1BA00010000000000000000024F40011
:04000005080000ED02
:00000001FF
